{
  "contractName": "Incrementer",
  "abi": [
    {
      "inputs": [
        {
          "internalType": "uint256",
          "name": "_initialNumber",
          "type": "uint256"
        }
      ],
      "payable": false,
      "stateMutability": "nonpayable",
      "type": "constructor"
    },
    {
      "anonymous": false,
      "inputs": [
        {
          "indexed": false,
          "internalType": "address",
          "name": "sender",
          "type": "address"
        },
        {
          "indexed": false,
          "internalType": "address",
          "name": "receiver",
          "type": "address"
        },
        {
          "indexed": false,
          "internalType": "uint256",
          "name": "amount",
          "type": "uint256"
        }
      ],
      "name": "Transfer",
      "type": "event"
    },
    {
      "constant": true,
      "inputs": [
        {
          "internalType": "address",
          "name": "",
          "type": "address"
        }
      ],
      "name": "balances",
      "outputs": [
        {
          "internalType": "uint256",
          "name": "",
          "type": "uint256"
        }
      ],
      "payable": false,
      "stateMutability": "view",
      "type": "function"
    },
    {
      "constant": true,
      "inputs": [],
      "name": "number",
      "outputs": [
        {
          "internalType": "uint256",
          "name": "",
          "type": "uint256"
        }
      ],
      "payable": false,
      "stateMutability": "view",
      "type": "function"
    },
    {
      "constant": false,
      "inputs": [
        {
          "internalType": "address",
          "name": "receiver",
          "type": "address"
        },
        {
          "internalType": "uint256",
          "name": "amount",
          "type": "uint256"
        }
      ],
      "name": "transfer",
      "outputs": [],
      "payable": false,
      "stateMutability": "nonpayable",
      "type": "function"
    },
    {
      "constant": false,
      "inputs": [
        {
          "internalType": "uint256",
          "name": "_value",
          "type": "uint256"
        }
      ],
      "name": "increment",
      "outputs": [],
      "payable": false,
      "stateMutability": "nonpayable",
      "type": "function"
    },
    {
      "constant": false,
      "inputs": [],
      "name": "reset",
      "outputs": [],
      "payable": false,
      "stateMutability": "nonpayable",
      "type": "function"
    }
  ],
  "bytecode": "0x608060405234801561001057600080fd5b506040516102673803806102678339818101604052602081101561003357600080fd5b5051600055610220806100476000396000f3fe608060405234801561001057600080fd5b50600436106100575760003560e01c806327e235e31461005c5780637cf5dab0146100945780638381f58a146100b3578063a9059cbb146100bb578063d826f88f146100e7575b600080fd5b6100826004803603602081101561007257600080fd5b50356001600160a01b03166100ef565b60408051918252519081900360200190f35b6100b1600480360360208110156100aa57600080fd5b5035610101565b005b61008261010c565b6100b1600480360360408110156100d157600080fd5b506001600160a01b038135169060200135610112565b6100b16101e5565b60016020526000908152604090205481565b600080549091019055565b60005481565b3360009081526001602052604090205481111561016b576040805162461bcd60e51b8152602060048201526012602482015271496e73756666696369656e742066756e647360701b604482015290519081900360640190fd5b604080513381526001600160a01b038416602082015280820183905290517fddf252ad1be2c89b69c2b068fc378daa952ba7f163c4a11628f55a4df523b3ef9181900360600190a133600090815260016020526040808220805484900390556001600160a01b039390931681529190912080549091019055565b6000805556fea265627a7a723158205056d815b9f4868128f6173afceca705b8b81fdd7980aa433329639ad690243d64736f6c63430005100032",
  "source": "pragma solidity ^0.5.0;\r\n\r\ncontract Incrementer {\r\n    uint256 public number;\r\n\tmapping(address => uint) public balances;\r\n\tevent Transfer(address sender, address receiver, uint amount);\r\n\r\n    function transfer(address receiver, uint amount) public {\r\n        require(balances[msg.sender] >= amount, \"Insufficient funds\");\r\n        emit Transfer(msg.sender, receiver, amount);\r\n        balances[msg.sender] -= amount;\r\n        balances[receiver] += amount;\r\n    }\r\n    constructor(uint256 _initialNumber) public {\r\n        number = _initialNumber;\r\n    }\r\n\r\n    function increment(uint256 _value) public {\r\n        number = number + _value;\r\n    }\r\n\r\n    function reset() public {\r\n        number = 0;\r\n    }\r\n\t\r\n\t\r\n}",
  "sourcePath": "C:/Users/Ris/Desktop/Test/contracts/Incrementer.sol",
  "compiler": {
    "name": "solc",
    "version": "0.5.16+commit.9c3226ce.Emscripten.clang"
  },
  "schemaVersion": "3.3.4",
  "updatedAt": "2021-04-15T11:10:15.508Z",
  "networkType": "ethereum",
  "devdoc": {
    "methods": {}
  },
  "userdoc": {
    "methods": {}
  }
}