{
  "contractName": "myContract",
  "abi": [
    {
      "constant": true,
      "inputs": [],
      "name": "getData",
      "outputs": [
        {
          "internalType": "uint256",
          "name": "",
          "type": "uint256"
        }
      ],
      "payable": false,
      "stateMutability": "view",
      "type": "function"
    }
  ],
  "bytecode": "0x6080604052348015600f57600080fd5b5060808061001e6000396000f3fe6080604052348015600f57600080fd5b506004361060285760003560e01c80633bc5de3014602d575b600080fd5b60336045565b60408051918252519081900360200190f35b6000549056fea265627a7a72315820819828433474442c91c8e86ef6b2dc25dbb876772e7f1f3ca3bb1f43adb8aac364736f6c63430005100032",
  "source": "pragma solidity ^0.5.0;\r\ncontract myContract {\r\n    uint data;\r\n  \r\n    function getData() external view returns(uint) {\r\n        return data;\r\n    }\r\n \r\n}",
  "sourcePath": "C:/Users/Ris/Desktop/Test/contracts/Testing.sol",
  "compiler": {
    "name": "solc",
    "version": "0.5.16+commit.9c3226ce.Emscripten.clang"
  },
  "schemaVersion": "3.3.4",
  "updatedAt": "2021-04-12T09:53:40.089Z",
  "devdoc": {
    "methods": {}
  },
  "userdoc": {
    "methods": {}
  }
}