{
  "contractName": "Testing",
  "abi": [
    {
      "constant": false,
      "inputs": [
        {
          "internalType": "uint256",
          "name": "_myInt",
          "type": "uint256"
        }
      ],
      "name": "setTheInt",
      "outputs": [],
      "payable": false,
      "stateMutability": "nonpayable",
      "type": "function"
    },
    {
      "constant": true,
      "inputs": [],
      "name": "getTheInt",
      "outputs": [
        {
          "internalType": "uint256",
          "name": "",
          "type": "uint256"
        }
      ],
      "payable": false,
      "stateMutability": "view",
      "type": "function"
    }
  ],
  "bytecode": "0x60806040526103e860005534801561001657600080fd5b5060ab806100256000396000f3fe6080604052348015600f57600080fd5b506004361060325760003560e01c8063457b0793146037578063ec068e0a146053575b600080fd5b605160048036036020811015604b57600080fd5b5035606b565b005b60596070565b60408051918252519081900360200190f35b600055565b6000549056fea265627a7a7231582035a28767882fe2d77a1dab147672d0e97bc99cb4a1bb2d113986a20f3ca61f0764736f6c63430005100032",
  "source": "pragma solidity ^0.5.1;\r\n\r\ncontract Testing {\r\n    uint myInt=1000;\r\n    \r\n    function setTheInt(uint _myInt) public {\r\n        myInt = _myInt;\r\n    }\r\n    \r\n    function getTheInt() external view returns(uint) {\r\n        return myInt;\r\n    }\r\n}",
  "sourcePath": "C:/Users/Ris/Desktop/Test/contracts/Testing.sol",
  "compiler": {
    "name": "solc",
    "version": "0.5.16+commit.9c3226ce.Emscripten.clang"
  },
  "schemaVersion": "3.3.4",
  "updatedAt": "2021-04-13T06:48:29.284Z",
  "devdoc": {
    "methods": {}
  },
  "userdoc": {
    "methods": {}
  }
}