{
  "contractName": "TransferFunds",
  "abi": [
    {
      "inputs": [],
      "payable": false,
      "stateMutability": "nonpayable",
      "type": "constructor"
    },
    {
      "anonymous": false,
      "inputs": [
        {
          "indexed": false,
          "internalType": "address",
          "name": "sender",
          "type": "address"
        },
        {
          "indexed": false,
          "internalType": "address",
          "name": "receiver",
          "type": "address"
        },
        {
          "indexed": false,
          "internalType": "uint256",
          "name": "amount",
          "type": "uint256"
        }
      ],
      "name": "Transfer",
      "type": "event"
    },
    {
      "constant": true,
      "inputs": [
        {
          "internalType": "address",
          "name": "",
          "type": "address"
        }
      ],
      "name": "balances",
      "outputs": [
        {
          "internalType": "uint256",
          "name": "",
          "type": "uint256"
        }
      ],
      "payable": false,
      "stateMutability": "view",
      "type": "function"
    },
    {
      "constant": false,
      "inputs": [
        {
          "internalType": "address[]",
          "name": "receivers",
          "type": "address[]"
        },
        {
          "internalType": "uint256",
          "name": "amount",
          "type": "uint256"
        }
      ],
      "name": "transfer",
      "outputs": [],
      "payable": false,
      "stateMutability": "nonpayable",
      "type": "function"
    },
    {
      "constant": false,
      "inputs": [
        {
          "internalType": "address",
          "name": "receiver",
          "type": "address"
        },
        {
          "internalType": "uint256",
          "name": "amount",
          "type": "uint256"
        }
      ],
      "name": "transfer",
      "outputs": [],
      "payable": false,
      "stateMutability": "nonpayable",
      "type": "function"
    }
  ],
  "bytecode": "0x608060405234801561001057600080fd5b506103b2806100206000396000f3fe608060405234801561001057600080fd5b50600436106100415760003560e01c80631939c1ff1461004657806327e235e3146100ed578063a9059cbb14610125575b600080fd5b6100eb6004803603604081101561005c57600080fd5b81019060208101813564010000000081111561007757600080fd5b82018360208201111561008957600080fd5b803590602001918460208302840111640100000000831117156100ab57600080fd5b9190808060200260200160405190810160405280939291908181526020018383602002808284376000920191909152509295505091359250610151915050565b005b6101136004803603602081101561010357600080fd5b50356001600160a01b0316610298565b60408051918252519081900360200190f35b6100eb6004803603604081101561013b57600080fd5b506001600160a01b0381351690602001356102aa565b81513360009081526020819052604090205490820211156101ae576040805162461bcd60e51b8152602060048201526012602482015271496e73756666696369656e742066756e647360701b604482015290519081900360640190fd5b60005b8251811015610293577fddf252ad1be2c89b69c2b068fc378daa952ba7f163c4a11628f55a4df523b3ef338483815181106101e857fe5b60200260200101518460405180846001600160a01b03166001600160a01b03168152602001836001600160a01b03166001600160a01b03168152602001828152602001935050505060405180910390a1336000908152602081905260408120805484900390558351839190819086908590811061026157fe5b6020908102919091018101516001600160a01b03168252810191909152604001600020805490910190556001016101b1565b505050565b60006020819052908152604090205481565b33600090815260208190526040902054811115610303576040805162461bcd60e51b8152602060048201526012602482015271496e73756666696369656e742066756e647360701b604482015290519081900360640190fd5b604080513381526001600160a01b038416602082015280820183905290517fddf252ad1be2c89b69c2b068fc378daa952ba7f163c4a11628f55a4df523b3ef9181900360600190a133600090815260208190526040808220805484900390556001600160a01b03939093168152919091208054909101905556fea265627a7a7231582031f83f7485dcd5235c1221767df7b96d7e51fdc3f892a734a88f96aa339b0b7964736f6c63430005100032",
  "source": "pragma solidity ^0.5.0;\r\n\r\ncontract TransferFunds {\r\n\r\n    mapping(address => uint) public balances;\r\n\r\n    event Transfer(address sender, address receiver, uint amount);\r\n\t\r\n\tconstructor() public {\r\n        \r\n    }\r\n\r\n    function transfer(address receiver, uint amount) public {\r\n        require(balances[msg.sender] >= amount, \"Insufficient funds\");\r\n        emit Transfer(msg.sender, receiver, amount);\r\n        balances[msg.sender] -= amount;\r\n        balances[receiver] += amount;\r\n    }\r\n\r\n    // In a Batch\r\n\r\n    function transfer(address[] memory receivers, uint amount) public {\r\n        require(balances[msg.sender] >= receivers.length * amount, \"Insufficient funds\");\r\n        for (uint i=0; i<receivers.length; i++) {\r\n            emit Transfer(msg.sender, receivers[i], amount);\r\n            balances[msg.sender] -= amount;\r\n            balances[receivers[i]] += amount;\r\n        }\r\n    }\r\n}",
  "sourcePath": "C:/Users/Ris/Desktop/Test/contracts/TransferFunds.sol",
  "compiler": {
    "name": "solc",
    "version": "0.5.16+commit.9c3226ce.Emscripten.clang"
  },
  "schemaVersion": "3.3.4",
  "updatedAt": "2021-04-13T06:58:25.406Z",
  "devdoc": {
    "methods": {}
  },
  "userdoc": {
    "methods": {}
  }
}