{
  "contractName": "VendingMachine",
  "abi": [
    {
      "inputs": [],
      "payable": false,
      "stateMutability": "nonpayable",
      "type": "constructor"
    },
    {
      "constant": true,
      "inputs": [
        {
          "internalType": "address",
          "name": "",
          "type": "address"
        }
      ],
      "name": "cupcakeBalances",
      "outputs": [
        {
          "internalType": "uint256",
          "name": "",
          "type": "uint256"
        }
      ],
      "payable": false,
      "stateMutability": "view",
      "type": "function"
    },
    {
      "constant": true,
      "inputs": [],
      "name": "owner",
      "outputs": [
        {
          "internalType": "address",
          "name": "",
          "type": "address"
        }
      ],
      "payable": false,
      "stateMutability": "view",
      "type": "function"
    },
    {
      "constant": false,
      "inputs": [
        {
          "internalType": "uint256",
          "name": "amount",
          "type": "uint256"
        }
      ],
      "name": "refill",
      "outputs": [],
      "payable": false,
      "stateMutability": "nonpayable",
      "type": "function"
    },
    {
      "constant": false,
      "inputs": [
        {
          "internalType": "uint256",
          "name": "amount",
          "type": "uint256"
        }
      ],
      "name": "purchase",
      "outputs": [],
      "payable": true,
      "stateMutability": "payable",
      "type": "function"
    }
  ],
  "bytecode": "0x608060405234801561001057600080fd5b50600080546001600160a01b03191633178155308152600160205260409020606490556102e9806100426000396000f3fe60806040526004361061003f5760003560e01c80638da5cb5b14610044578063ca9d07ba14610075578063e18a7b92146100a1578063efef39a1146100e6575b600080fd5b34801561005057600080fd5b50610059610103565b604080516001600160a01b039092168252519081900360200190f35b34801561008157600080fd5b5061009f6004803603602081101561009857600080fd5b5035610112565b005b3480156100ad57600080fd5b506100d4600480360360208110156100c457600080fd5b50356001600160a01b0316610189565b60408051918252519081900360200190f35b61009f600480360360208110156100fc57600080fd5b503561019b565b6000546001600160a01b031681565b6000546001600160a01b03163314610171576040805162461bcd60e51b815260206004820152601a60248201527f4f6e6c7920746865206f776e65722063616e20726566696c6c2e000000000000604482015290519081900360640190fd5b30600090815260016020526040902080549091019055565b60016020526000908152604090205481565b80670de0b6b3a7640000023410156101e45760405162461bcd60e51b81526004018080602001828103825260278152602001806102586027913960400191505060405180910390fd5b306000908152600160205260409020548111156102325760405162461bcd60e51b815260040180806020018281038252603681526020018061027f6036913960400191505060405180910390fd5b306000908152600160205260408082208054849003905533825290208054909101905556fe596f75206d75737420706179206174206c65617374203120455448207065722063757063616b654e6f7420656e6f7567682063757063616b657320696e2073746f636b20746f20636f6d706c6574652074686973207075726368617365a265627a7a72315820dccec4900c1b8dd9b07ec253e7ec57d07dc80cd5e7be620cce853c7162802a2e64736f6c63430005100032",
  "source": "pragma solidity 0.5.16;\r\n\r\ncontract VendingMachine {\r\n\r\n    // Declare state variables of the contract\r\n    address public owner;\r\n    mapping (address => uint) public cupcakeBalances;\r\n\r\n    // When 'VendingMachine' contract is deployed:\r\n    // 1. set the deploying address as the owner of the contract\r\n    // 2. set the deployed smart contract's cupcake balance to 100\r\n    constructor() public {\r\n        owner = msg.sender;\r\n        cupcakeBalances[address(this)] = 100;\r\n    }\r\n\r\n    // Allow the owner to increase the smart contract's cupcake balance\r\n    function refill(uint amount) public {\r\n        require(msg.sender == owner, \"Only the owner can refill.\");\r\n        cupcakeBalances[address(this)] += amount;\r\n    }\r\n\r\n    // Allow anyone to purchase cupcakes\r\n    function purchase(uint amount) public payable {\r\n        require(msg.value >= amount * 1 ether, \"You must pay at least 1 ETH per cupcake\");\r\n        require(cupcakeBalances[address(this)] >= amount, \"Not enough cupcakes in stock to complete this purchase\");\r\n        cupcakeBalances[address(this)] -= amount;\r\n        cupcakeBalances[msg.sender] += amount;\r\n    }\r\n}\r\n",
  "sourcePath": "C:/Users/Ris/Desktop/Test/contracts/Testing.sol",
  "compiler": {
    "name": "solc",
    "version": "0.5.16+commit.9c3226ce.Emscripten.clang"
  },
  "schemaVersion": "3.3.4",
  "updatedAt": "2021-04-12T10:53:09.593Z",
  "devdoc": {
    "methods": {}
  },
  "userdoc": {
    "methods": {}
  }
}